:020000040000FA
:060000006FEF02F0120098
:020006000000F8
:08000800D9CFE6FFE1CFD9FFDB
:10001000040EE126D38CD39AD388948C948EAC981A
:10002000AC8AAB8EAC9CAC84B896AB88190EAF6E24
:100030009D8AF28CF28E9E9A806A896A330E926E45
:100040000F01CC0E386F846A8D6A966A816A8A6A5B
:10005000936A8094809684908492DE6ADD6A010EB1
:10006000F36E020EF3CFDBFF030EDB6A3C0EE66E8F
:1000700048EC02F0E5528480010EF36E020EF3CFDD
:10008000DBFF030EDB6AFA0EE66E48EC02F0E55287
:10009000DE6ADD6A8050100B3FE0D950020FE96E36
:1000A000DACFEAFF010EEE1801E1ED5035E1020E64
:1000B000DB6A030EDB6A010EDE6EDD6A6CD88184BA
:1000C000050EE66E48EC02F0E55281948182050E41
:1000D000E66E48EC02F0E55281925ED9FA0EE66EC9
:1000E00048EC02F0E55284820A0EE66E48EC02F01B
:1000F000E55284920A0EE66E48EC02F0E5528482E4
:100100000A0EE66E48EC02F0E55284920A0EE66EA4
:1001100048EC02F0E55284828050200B31E0D9CFC8
:10012000E9FFDACFEAFF010EEE1801E1ED5028E118
:10013000DE6ADD6A010EF36E020EF3CFDBFF030E03
:10014000DB6AC8D88186050EE66E48EC02F0E552FF
:100150008196C80EE66E48EC02F0E552C80EE66ED7
:1001600048EC02F0E552640EE66E48EC02F0E5520F
:100170008184050EE66E48EC02F0E552819484809D
:1001800089D7040EE15C02E2E16AE552E16EE552D4
:10019000E7CFD9FF12008480140EE66E48EC02F01F
:1001A000E5528490140EE66E48EC02F0E55284802D
:1001B0000A0EE66E48EC02F0E55284900A0EE66EF6
:1001C00048EC02F0E55284800A0EE66E48EC02F03C
:1001D000E55284900A0EE66E48EC02F0E552848007
:1001E0000A0EE66E48EC02F0E55284900A0EE66EC6
:1001F00048EC02F0E5528480050EE66E48EC02F011
:10020000E5528490050EE66E48EC02F0E5528480DB
:10021000050EE66E48EC02F0E5528490050EE66E9F
:1002200048EC02F0E5528480050EE66E48EC02F0E0
:10023000E5528490050EE66E48EC02F0E5528480AB
:10024000050EE66E48EC02F0E5528490050EE66E6F
:1002500048EC02F0E5528480050EE66E48EC02F0B0
:10026000E5528490050EE66E48EC02F0E55284807B
:10027000050EE66E48EC02F0E5528490050EE66E3F
:1002800048EC02F0E5528480020EE66E48EC02F083
:10029000E5528490020EE66E48EC02F0E55284804E
:1002A000010EE66E48EC02F0E5528490010EE66E17
:1002B00048EC02F0E5528480020EE66E48EC02F053
:1002C000E5528490020EE66E48EC02F0E55284900E
:1002D00000D012008482140EE66E48EC02F0E55263
:1002E0008492140EE66E48EC02F0E55284820A0E07
:1002F000E66E48EC02F0E55284920A0EE66E48EC97
:1003000002F0E55284820A0EE66E48EC02F0E552F5
:1003100084920A0EE66E48EC02F0E55284820A0EE0
:10032000E66E48EC02F0E55284920A0EE66E48EC66
:1003300002F0E55284820A0EE66E48EC02F0E552C5
:1003400084920A0EE66E48EC02F0E5528482050EB5
:10035000E66E48EC02F0E5528492050EE66E48EC3B
:1003600002F0E5528482050EE66E48EC02F0E5529A
:100370008492050EE66E48EC02F0E5528482050E8A
:10038000E66E48EC02F0E5528492050EE66E48EC0B
:1003900002F0E55200D01200D9CFE6FFE1CFD9FF3D
:1003A000020EE126DE6ADD6ADE6ADD6ADECF02F079
:1003B000DDCF03F0D890035004E60A0E025C000E75
:1003C00003580AE2C80EE66E48EC02F0E552DF2A56
:1003D000010E01E3DB2AEAD7DE6ADD6A020EE15C88
:1003E00003E200D0E16AE552E16EE552E7CFD9FFC2
:0203F0001200F9
:0E03F200060EF66E000EF76E000EF86E00019D
:100400000900F550656F0900F550666F03E16567F7
:1004100001D03DD00900F550606F0900F550616FC3
:100420000900F550626F09000900F550E96E0900F6
:10043000F550EA6E090009000900F550636F0900E4
:10044000F550646F09000900F6CF67F0F7CF68F048
:10045000F8CF69F060C0F6FF61C0F7FF62C0F8FF37
:100460000001635302E1645307E00900F550EE6EAA
:100470006307F8E26407F9D767C0F6FF68C0F7FFC3
:1004800069C0F8FF00016507000E665BBFD7120068
:10049000FF0EE350056EEF0E01D0F30EE76EE72E70
:1004A0004FEF02F00C0E046EE76AE72E55EF02F0F4
:0E04B000042E54EF02F0052E4DEF02F0120064
:0204BE00000E2E
:1004C000F36E00EE00F0060E01D81200EA6002D0D2
:0E04D000EE6AFCD7F350E9601200EE6AFCD72A
:0204DE0015EE19
:1004E00000F025EE00F0F86A019CF9EC01F07DECDB
:0A04F00002F004EC00F0FBD712004C
:0204FA001200EE
:020000040030CA
:0100010028D6
:0100020019E4
:010003003CC0
:01000500BD3D
:010006008178
:010008000FE8
:01000900C036
:01000A000FE6
:01000B00E014
:01000C000FE4
:01000D0040B2
:00000001FF
